:020000040800F2
:1000000000200020250100086D0100086D01000896
:1000100000000000000000000000000000000000E0
:100020000000000000000000000000006D0100085A
:1000300000000000000000006D0100086D010008D4
:100040006D0100086D0100086D0100086D010008D8
:100050006D0100086D0100086D0100086D010008C8
:100060006D0100086D0100086D0100086D010008B8
:100070006D0100086D0100086D0100086D010008A8
:100080006D0100086D010008000000006D0100080E
:100090006D0100086D0100086D0100086D01000888
:1000A0006D0100086D0100086D0100086D01000878
:1000B0006D010008000000006D0100080000000054
:0400C0005FF808F1EC
:1000C40010B5064C2378002B07D10548002802D030
:1000D400044800E000BF0121217010BD0000002091
:1000E400000000000002000808B5084B002B03D0F4
:1000F4000748084900E000BF07480168002903D009
:10010400064B002B00D0984708BDC04600000000F5
:10011400000200080400002000000020000000008D
:100124000B488546002103E00A4B5B5843500431D9
:1001340009480A4B42189A42F6D3094A02E00023BE
:1001440013600432074B9A42F9D300F00FF8FEE72C
:1001540000200020200200080000002000000020F1
:10016400000000201C000020FEE7000008B5A023CA
:100174001803012100F034F8164B174A186880213F
:10018400104018601868C90201431960988813491F
:1001940001409980D86880211040D860D86809034C
:1001A4000143D96099680A409A609022D205106888
:1001B400032188431060D0688843D0609021C8052B
:1001C400018A80229200C80701D59A61F6E71A8550
:1001D400F4E7C04600080048FFFFF3FFFFFDFFFF00
:1001E40000B5054B5A69002902D01043586101E05B
:1001F40082435A6100BDC04600100240F8B5C046B3
:10020400F8BC08BC9E467047F8B5C046F8BC08BCAC
:040214009E4670474B
:04021800ED000008ED
:04021C00C500000811
:0400000508000125C9
:00000001FF
