:020000040800F2
:1000000000200020250100086D0100086D01000896
:1000100000000000000000000000000000000000E0
:100020000000000000000000000000006D0100085A
:1000300000000000000000006D0100086D010008D4
:100040006D0100086D0100086D0100086D010008D8
:100050006D0100086D0100086D0100086D010008C8
:100060006D0100086D0100086D0100086D010008B8
:100070006D0100086D0100086D0100086D010008A8
:100080006D0100086D010008000000006D0100080E
:100090006D0100086D0100086D0100086D01000888
:1000A0006D0100086D0100086D0100086D01000878
:1000B0006D010008000000006D0100080000000054
:0400C0005FF808F1EC
:1000C40010B5064C2378002B07D10548002802D030
:1000D400044800E000BF0121217010BD0000002091
:1000E40000000000DC06000808B5084B002B03D014
:1000F4000748084900E000BF07480168002903D009
:10010400064B002B00D0984708BDC04600000000F5
:10011400DC060008040000200000002000000000AD
:100124000B488546002103E00A4B5B5843500431D9
:1001340009480A4B42189A42F6D3094A02E00023BE
:1001440013600432074B9A42F9D300F00FF8FEE72C
:1001540000200020FC060008000000200000002011
:10016400000000201C000020FEE7000038B5E02459
:100174002003554C012100F097F92168534B80204E
:10018400194021602568C2022A432260A188504890
:1001940080220840A080E56810031D40E560E16806
:1001A40090220843E060A56803202B40A360D30598
:1001B4001968484A81431960DD688543DD60464B10
:1001C40080201968114019601D6841012943196094
:1001D4009D88402085439D80D96880251140D96041
:1001E400D868A9010143D9609D6880202A409A609B
:1001F40019683A4A114019601D68C1012943196000
:100204009D88802085439D80D96880251140D960D0
:10021400D86829020143D9609D6880202A409A60E9
:1002240019682F4A114019601D684100294319605B
:100234009D88102085439D80D96880201140D96015
:10024400DD6881002943D9609868802102409A6062
:100254001D68244A15401D601868CD0005431D60C3
:100264009988202081439980DD6880211540DD60D4
:10027400D8680D010543DD609968251C0A409A6021
:1002840000F0FEF80021072000F0BFF8164800F047
:10029400E7F80020011C00F0B8F8144800F0E0F87A
:1002A4000420012100F0B1F8114800F0D9F88020B1
:1002B4008400FA229000AC6100F01CF8FA232C852B
:1002C400980000F017F8F2E700080048FFFFF3FF7A
:1002D400FFFDFFFFFFCFFFFF00040048FF3FFFFFCC
:1002E400FFFCFFFFFFF3FFFFC8040008D904000868
:1002F400EA04000800B5124A8023D1695B000B436D
:10030400D361104B00215962012804D90E490138E8
:100314001985D86203E00D4901201985D8620121AD
:100324009982188A8843188289201880188AC007FD
:10033400FCD5D169802043000B43D36100BDC04686
:1003440000100240002000403F1F00009F0F0000EB
:1003540030B509220DE0094B102145B219850C1C5A
:100364002021002D01DA996100E0198540009C618B
:10037400C0B2013AD2B2002AEDD130BD0004004827
:1003840038B5064C10234025202225852385228557
:10039400A361FFF7DDFFA56138BDC0460004004836
:1003A40038B5064C10234025202225852385A261DB
:1003B400A361FFF7CDFFA56138BDC0460004004826
:1003C40010B54020FFF7DCFF1020FFF7D9FF002015
:1003D400FFF7D6FFB020FFF7D3FFAE20FFF7D0FF23
:1003E400D8240020FFF7DCFF0020FFF7D9FF013CF1
:1003F4000020FFF7D5FFE4B20020FFF7D1FF002C67
:10040400EFD1AF20FFF7BCFF10BD38B506224A4339
:100414000F25B0212840D4B20843FFF7B1FF60068E
:100424001023400F1843FFF7ABFF201C2840FFF7B1
:10043400A7FF38BD38B50024051CAB00074A59197D
:1004440050180319A03B18780134FFF7A9FF052CB5
:10045400F3D10020FFF7A4FF38BDC046F90400081B
:1004640010B5041CAE20FFF78BFF02E00134FFF748
:10047400E1FF20780028F9D1AF20FFF781FF10BDFC
:1004840038B5084C802525850520FFF733FFA56185
:10049400A420FFF775FF2F20FFF772FFFFF790FFEF
:1004A40038BDC0460004004800B5054B5A69002910
:1004B40002D01043586101E082435A6100BDC04636
:1004C400001002405A69426C6F672E7275204020FA
:1004D400323031340053544D3332463044697363FF
:1004E4006F76657279004C4344204E6F6B696120CE
:1004F4003131303000000000000000005F000000D7
:1005040007000700147F147F14242A7F2A12231360
:1005140008646236495522500005030000001C227D
:1005240041000041221C00082A1C2A0808083E0831
:1005340008005030000008080808080030300000A7
:1005440020100804023E5149453E00427F400042CB
:10055400615149462141454B311814127F102745FA
:100564004545393C4A494930017109050336494931
:100574004936064949291E00363600000056360021
:100584000000081422411414141414412214080005
:100594000201510906324979413E7E1111117E7FD3
:1005A400494949363E414141227F4141221C7F490C
:1005B4004949417F090901013E414151327F0808FF
:1005C400087F00417F41002040413F017F08142201
:1005D400417F404040407F0204027F7F0408107F37
:1005E4003E4141413E7F090909063E4151215E7F5A
:1005F40009192946464949493101017F01013F4012
:1006040040403F1F2040201F7F2018207F63140894
:1006140014630304780403615149454300007F4196
:1006240041020408102041417F0000040201020439
:100634004040404040000102040020545454787F5C
:10064400484444383844444420384444487F385467
:10065400545418087E090102081454543C7F0804B9
:10066400047800447D40002040443D00007F102871
:100674004400417F40007C041804787C080404781A
:1006840038444444387C14141408081414187C7C2A
:10069400080404084854545420043F4440203C4077
:1006A40040207C1C2040201C3C4030403C4428100E
:1006B40028440C5050503C4464544C440008364187
:1006C4000000007F0000004136080008082A1C08CA
:1006D400081C2A0808000000F8B5C046F8BC08BC8D
:1006E4009E467047F8B5C046F8BC08BC9E467047A5
:0406F400ED0000080D
:0406F800C500000831
:0400000508000125C9
:00000001FF
